:020000040000FA
:060000000A128A110E280D
:10000800FE00030EF2000408F3000A08F4000A12C6
:100018008A11F6280A128A11112883120313B401CF
:10002800B501B601B701B801B901BA01BB01BC01FC
:10003800BD01BE01BF01C00183010A128A11D7297F
:1000480083120313B1006430A2000030A300070834
:10005800AD00AE012D08A4002E08A5000A128A11D1
:100068008D200A128A11831203132208AF00310867
:1000780084002F08831380000A30A2000030A300F8
:100088004008AD00AE012D08F5002E08F6009C30A2
:10009800F700FF30F8000A128A11AC210A128A11FF
:1000A8008312031307087507A40076080318760A55
:1000B800A5000A128A118D200A128A1183120313CD
:1000C8002208AF002B0884002F08831380009C307F
:1000D800AD002D08F50040080A128A11F0210A1215
:1000E8008A1183120313AE00F630AF002F08F50013
:1000F8003F080A128A11F0210A128A118312031387
:100108002E070707B0002C088400300883138000EE
:10011800080083120313A801A31F932894289B287F
:10012800A209A309A20A0319A30AA801A80AA51FDC
:100138009E289F28A828A409A509A40A0319A50A86
:100148000130A6002608A806A901AA01220823044E
:100158000319AF28B028E728A701A70ABE2801304D
:100168000310A20DA30DFF3E031DB4280130A60005
:100178002608A707A31FC128C228B32801300310E7
:10018800A90DAA0DFF3E031DC32823082502031D40
:10019800CF2822082402031CD228D328DA282208D0
:1001A800A4022308031CA503A50229140130031087
:1001B800A30CA20CFF3E031DDB280130A702031D80
:1001C800E628E728C22828080319EB28EC28F12894
:1001D800A909AA09A90A0319AA0A2A08A300290829
:1001E800A20008000B1DF928FA2834290A128A11DE
:1001F80005220A128A111E2905103F08343E840080
:1002080083130008880085140511332985103E08DA
:10021800343E84008313000888000515051033292F
:1002280005114008343E8400831300088800051433
:1002380085103329831203130508F000F1017108B2
:10024800003A0319282933297008013A03190029AB
:10025800033A03190A29063A0319142933290B11F9
:100268000B1C372938294B298312031306183D29FB
:100278003E2944290130F000700887070B104B29EC
:1002880086184729482942290130870242297408DB
:100298008A0073088400720E8300FE0E7E0E090029
:1002A80083160317880189018316031385018601C4
:1002B8008701880189010614861481131514951481
:1002C8008B170B110B108B158B16161496140B111C
:1002D8000830831203138100831603138112F83048
:1002E8008105011081140115013083120313850063
:1002F80086010614861463308700880189013F301F
:10030800F5007508B4000630F5007508B5005B30D7
:10031800F5007508B6004F30F5007508B70066306F
:10032800F5007508B8006D30F5007508B9007D3026
:10033800F5007508BA000730F5007508BB007F3076
:10034800F5007508BC006730F5007508BD000800A9
:1003580083120313A001A101751CB329B429BC2978
:10036800770883120313A0070318A10A7808A107C6
:1003780001300310F70DF80DFF3E031DBD290130B4
:100388000310F60CF50CFF3E031DC429750876040E
:10039800031DCF29D029B029831203132108F600A1
:1003A8002008F50008000A128A1154210A128A113D
:1003B8003F3083120313B2003208AB003E30B30063
:1003C8003308AC0040300A128A1124200A128A111C
:1003D800DC290A128A110E28F800F701781CF52981
:1003E800F629FA297508F6007608F7070310F50DBF
:1003F8000310F80C7808031D022A032AF22977084B
:1004080008000B11083083120313810083160313AD
:0E0418008112F83081050110811401150800D1
:04400E00F43FFF3F3D
:00000001FF
