:0200000038289E
:10000800F00003138312030EF1008B100313831205
:10001800861CF214061C72140B100B1974140313AB
:100028008312C1300B11810003138316D0300105F0
:1000380003388100F70B0B1103138312710E830829
:10004800F00E700E090082073F3406345B344F34DB
:1000580066346D347D3407347F34673477347C34C8
:1000680039345E3479347134031783168801890171
:1000780003138316FF3086007F308105FF3095001B
:10008800850187018801F03081058B178B158B1648
:100098001614961403138312003081000030F50003
:1000A800F200F400F800FA30F70003138312850118
:1000B800860187018801890103138312C1300B115E
:1000C800810003138316D0300105033881007218AC
:1000D8007220F2187F20741891206B280313831262
:1000E800061C7428F50A75080F3903138312850056
:1000F8008C207210080003138312861C8128F210CA
:10010800F50375080F390313831285008C20080046
:1001180075080F3927208700080074107708003801
:100128000319F80A770800380319FA3077080038F5
:100138000319F7000313831278080F392720880062
:020148000800AD
:04400E00D43FFF3F5D
:00000001FF
