:020000003428A2
:10000800F00003138312030EF1000818F215881884
:1000180072170819F21688197216081A721503133E
:1000280083120B110830810003138316D230810527
:1000380003138312710E8308F00E700E09008207F5
:100048003F3406345B344F3466346D347D340734C2
:100058007F34673477347C3439345E34793471349E
:1000680070200313831208140030F300F400F90021
:10007800FA00F700F800F600F500031383120B11DD
:100088000830810003138316D230810588200313BA
:100098008312061C721406185228572872185528FD
:1000A8005728FB0A7210861CF21486185C286128EF
:1000B800F2185F286128FB03F2107B0885008B206B
:1000C800B62072199320F2199A20721BA120F21AF5
:1000D800A820721AAF204B280317831688018901BC
:1000E80003138316003085008700880003308600DC
:1000F8007F30810503309500031383128501860143
:1001080087018801890108008B178B1608007B0876
:100118000F39F4007B08F039F300F30E08000812D9
:100128000814730823208700721108000810881427
:10013800740823208700F211080088100815760833
:1001480023208700721308000811881577082320D8
:100158008700F21208008811081679082320870002
:10016800721208000030F600F500F700F800F900F8
:10017800FA007B08F5006430F5020318F60A031844
:10018800BE286430F5077508F8000A30F80203182D
:10019800F70A0318C9280A30F8077808FA00013066
:1001A800FA020318F90A0318D3280130FA070800DD
:04400E00D43FFF3F5D
:00000001FF
