:020000003428A2
:10000800F00003138312030EF1000818F215881884
:1000180072170819F21688197216081A721503133E
:1000280083120B110830810003138316D230810527
:1000380003138312710E8308F00E700E09008207F5
:100048003F3406345B344F3466346D347D340734C2
:100058007F34673477347C3439345E34793471349E
:1000680071200313831208140030F300F400F90020
:10007800FA00F700F800F600F500FB0003138312FE
:100088000B110830810003138316D23081058920B3
:1000980003138312061C7214061853285828721862
:1000A80056285828FB0A7210861CF21486185D28F8
:1000B8006228F21860286228FB03F2107B0885008A
:1000C8008C20B72072199420F2199B20721BA22051
:1000D800F21AA920721AB0204C2803178316880137
:1000E80089010313831600308500870088000330D8
:1000F80086007F3081050330950003138312850144
:10010800860187018801890108008B178B16080072
:100118007B080F39F4007B08F039F300F30E080070
:1001280008120814730823208700721108000810A9
:100138008814740823208700F21108008810081515
:10014800760823208700721308000811881577089D
:1001580023208700F2120800881108167908232046
:100168008700721208000030F600F500F700F8006A
:10017800F900FA007B08F5006430F5020318F60A66
:100188000318C0286430F5077508F8000A30F8022B
:100198000318F70A0318CA280A30F8077808FA007B
:1001A8000130FA020318F90A0318D4280130FA07B3
:0201B80008003D
:04400E00D43FFF3F5D
:00000001FF
