:020000002B28AB
:10000800F00003138312030EF1000B190E280B18CE
:100018001B2824280313831208300B1181000313B3
:100028008316D030010503388100F403092803132F
:100038008312061C7314861CF3140B10F31709287B
:1000480003138312710E8308F00E700E0900472007
:100058005D200030F500F600F030810503138312AF
:10006800003081007D30F4000313831208300B1137
:10007800810003138316D0300105033881006720FF
:10008800F31B74204328031783168801890103137F
:100098008316003087008800033086008113033000
:1000A8009500031383128501860187018801890160
:1000B80008008B178B168B150313831616149614CA
:1000C8000B100B110800F40803196B200800F50A3F
:1000D80075080F390313831287007D30F400080078
:1000E80073187F20F318822076080F3903138312C0
:1000F8008800F3130800F60A73100800F603F310DB
:020108000800ED
:04400E00F43FFF3F3D
:00000001FF
