:020000001C28BA
:10000800F00003138312030EF1000B180C281528B7
:1000180003138312061C7314861CF3140B10F317B6
:10002800092803138312710E8308F00E700E09005D
:1000380027203C201330F4001530F5000930F60075
:10004800F31B44202428031783168801890103130E
:100058008316003087000330860081130330950033
:10006800031383128501860187018801890108002D
:100078008B178B1503138316161496140B10080090
:1000880073184F20F318592074081F39031383126B
:100098008700F3130800F40A740875020319562040
:1000A800731008000A30F4000800F403740876029C
:0E00B80003196020F31008001430F400080053
:04400E00F43FFF3F3D
:00000001FF
