:020000040000FA
:060000000A128A110E280D
:10000800FE00030E83120313A4000A08A5000A12B7
:100018008A1124280A128A111128FA01FB01FC010D
:1000280083120313AD01AE01AF01B001B101B201FA
:10003800B301B401B501B60183010A128A11572927
:100048000B1D27282828A9280830810083160313A8
:100058000108F8390538810081117C08031D35280D
:1000680036285A288312031308143608A1003508C5
:10007800A0000310A10CA00C0310A10CA00C0310ED
:10008800A10CA00C2008283EF00021080318013E0E
:10009800003EF1000A128A11D8240A128A1183122A
:1000A800031308100130A0002008FC077C03031D7F
:1000B8005E285F288228831288143408A100330838
:1000C800A0000310A10CA00C0310A10CA00C03109D
:1000D800A10CA00C2008283EF00021080318013EBE
:1000E800003EF1000A128A11D8240A128A118312DA
:1000F800031388100130A0002008FC0702307C069A
:10010800031D87288828A828831208153208A1000B
:100118003108A0000310A10CA00C0310A10CA00C26
:100128000310A10CA00C2008283EF0002108031899
:10013800013E003EF1000A128A11D8240A128A11DF
:10014800831203130811FC010B1183120C1FAD2835
:10015800AE285029851AB128B2284F291F19B52869
:10016800B628D9289F19B928BA28D9281E08A00066
:10017800A1012008F0002108F100831603131E08CE
:1001880083120313A200A3012208F2002308F3003C
:100198000A128A11A3240A128A11710883120313FE
:1001A800B6007008B5001F154F291F1DDC28DD2873
:1001B80001299F19E028E12801291E08A000A101B2
:1001C8002008F0002108F100831603131E0883128B
:1001D8000313A200A3012208F2002308F3000A1265
:1001E8008A11A3240A128A11710883120313B40016
:1001F8007008B3001F119F154F291F1904290529DD
:1002080027299F1D0829092927291E08A000A101BF
:100218002008F0002108F100831603131E0883123A
:100228000313A200A3012208F2002308F3000A1214
:100238008A11A3240A128A11710883120313B200C7
:100248007008B100D7281F1D2A292B294F299F1D67
:100258002E292F294F291E08A000A1012008F000EF
:100268002108F100831603131E0883120313A2004A
:10027800A3012208F2002308F3000A128A11A3241A
:100288000A128A117108FB007008FA00831203131E
:100298001F119F114F290C1325088A00240E830073
:1002A800FE0E7E0E09000A128A11DB230A128A1139
:1002B8000A128A1134240A128A11831203139F1412
:1002C8000F3083120313AA00AA0B68296B29831223
:1002D80003138C1E70297129612973301A06031DB6
:1002E80076297729DD2905163608AB003508AA00D6
:1002F8000310AB0CAA0C0310AB0CAA0C0310AB0C2C
:10030800AA0C2A08283EAC002C08A60000300A12C5
:100318008A1182240A128A11831203133408AB004B
:100328003308AA000310AB0CAA0C0310AB0CAA0CE0
:100338000310AB0CAA0C2A08283EAC002C08A60017
:1003480001300A128A1182240A128A1183120313B5
:100358003208AB003108AA000310AB0CAA0C03103A
:10036800AB0CAA0C0310AB0CAA0C2A08283EAC0054
:100378002C08A60002300A128A1182240A128A1155
:10038800A7300A128A115D240A128A1106308312D4
:100398000313AC001330AB00AD30AA00AA0BD2296E
:1003A800AB0BD229AC0BD2290A128A1134240A12B7
:1003B8008A112030831203131A06031DE429E52944
:1003C800502A851600300A128A11C3240A128A118B
:1003D80083120313AA00AB010310AA0DAB0D03107F
:1003E800AA0DAB0D0310AA0DAB0D2A08C03EB5002F
:1003F8002B080318013EFE3EB60001300A128A118E
:10040800C3240A128A1183120313AA00AB01031032
:10041800AA0DAB0D0310AA0DAB0D0310AA0DAB0D61
:100428002A08C03EB3002B080318013EFE3EB40064
:1004380002300A128A11C3240A128A118312031382
:10044800AA00AB010310AA0DAB0D0310AA0DAB0D4A
:100458000310AA0DAB0D2A08C03EB1002B080318E3
:10046800013EFE3EB200C0300A128A115D240A1213
:100478008A11063083120313AC001330AB00AD3081
:10048800AA00AA0B452AAB0B452AAC0B452A0A122F
:100498008A1134240A128A116430831203131A064B
:1004A800031D572A582A61290512851201300A129C
:1004B8008A115D240A128A11063083120313AC00D4
:1004C8001330AB00AD30AA00AA0B682AAB0B682A20
:0C04D800AC0B682A5C290A128A110E285D
:1006000003308A000408840A820700340D340D3454
:10061000453473347434613464346F342034453475
:100620006C3469346D3469346E34613464346F34DD
:100630000D344E346F3420346834613479342034CE
:100640006E3469346E34673475346E3420346534F6
:1006500073347434613464346F34203467347534E3
:10066000613472346434613464346F340D34003472
:10067000533420342D34203447347534613472348B
:1006800064346134723420344534733474346134E6
:1006900064346F340D34533450344134433445346E
:1006A00020342D3420345234653467347234653448
:1006B00073346134723420346134203465347334DB
:1006C0007434613464346F340D3400340D3449347F
:1006D0006E3473347434723475346334633469340F
:1006E0006F346E3465347334203470346134723452
:1006F0006134203463346F346E34743472346F3444
:100700006C34203464346534203465347334743488
:10071000613464346F340D340034443445344C3423
:1007200020342D34203445346C346D3469346E34C7
:100730006134723420346534733474346134643415
:100740006F34203467347534613472346434613406
:1007500064346F340D3400340D344E345534453424
:1007600056344F3420344534733474346134643433
:100770006F342034473475346134723464346134F6
:1007800064346F3421340D3400340D345234653404
:10079000673472346534733461346E3464346F3466
:1007A00020346134203465347334743461346434F7
:1007B0006F340D3400340F3083160317880089011D
:1007C0000F3083160313850086018030870088016F
:1007D00089019816181283120313981783160313AE
:1007E0001815831603178711831603139A011930FE
:1007F0009900831203131816831603139F134130B5
:10080000831203139F00083081008316031301082D
:10081000F83905388100811181120B1187140715F1
:10082000F9309200831203139715171520309500A5
:100830009D151D1520309B008C1003309200121561
:100840008C1C232C242C202C80308316031387002F
:100850008B170B178B160C17831203138501860158
:10086000870188018901080061300A128A115D241C
:100870000A128A11413083120313A900ED30A80037
:10088000A80B402CA90B402C452C33300A128A119E
:100890005D240A128A11413083120313A900ED303E
:1008A000A800A80B512CA90B512C562C88300A12E9
:1008B0008A115D240A128A11080083120313A7000B
:1008C000752C270884000A128A1100230A128A1143
:1008D000990083160313981C6E2C6F2C692C013021
:1008E00083120313A6002608A707270884000A120C
:1008F0008A1100230A128A11003A031D802C812CD0
:10090000612C080083120313A70027088312031722
:100910008D00831203132608831203178C0083169D
:1009200003178C130C158B138B1B972C982C932C63
:100930005530831603178D00AA308D008C148B1749
:100940000C118C1408007308F5007208F4000630CE
:100950000310F50CF40CFF3E031DA82C7108F700E2
:100960007008F6000310F60DF70D0310F60DF70DE5
:1009700074087604F80075087704F9007908F10026
:100980007808F000080083120313A70027088312D9
:1009900003178D00831603178C130C14831203178F
:1009A0000C0883120313A6002608A80028080800D4
:1009B000E02C0130F0020030031CF103F1020000D2
:0E09C00070087104031DE52CE62CD92C0800EC
:04400E00F43FFF3F3D
:00000001FF
