:020000040000FA
:060000000A128A110E280D
:10000800FE00030E83120313A4000A08A5000A12B7
:100018008A11ED290A128A111128FA01FB01FC0143
:10002800FD0183120313B601B701B801B9018301B9
:100038000A128A111F280A128A11AD220A128A117D
:100048000A128A11EA220A128A11831203139F14D0
:10005800023083120313AA00AA0B3028000098303C
:1000680083120313AA008530AB000030AC000030C7
:10007800AD007C08AE007D08AF00B001B1012E08CC
:10008800AA072F0803182F0F4A284B28AB07300858
:100098000318300F50285128AC0731080318310ACB
:1000A800AD070E08B2000F08B300B401B50135085A
:1000B800803AFF002D08803A7F02031D6D282C0826
:1000C8003402031D6D282B083302031D6D282A08EE
:1000D8003202031C70287128722808107B08AB00B4
:1000E8007A08AA000310AB0CAA0C0310AB0CAA0CDC
:1000F8000310AB0CAA0CD030AC000730AD002A08B6
:100108002C02AE002B08031C2B0A2D02AF002F086F
:100118000F02031D91282E080E02031C942895280F
:10012800962888103908AB003808AA000310AB0CD1
:10013800AA0C0310AB0CAA0C0310AB0CAA0CFF30D2
:10014800AC002A082C02AD002B090318013EAE00B2
:100158002E080F02031DB2282D080E02031CB52815
:10016800B628B72808118C1EBA28BB28292873304E
:100178001A06031DC028C128DA28BA300A128A11C3
:1001880013230A128A11063083120313AC001330AA
:10019800AB00AD30AA00AA0BCF28AB0BCF28AC0B15
:1001A800CF280A128A11EA220A128A1120308312F1
:1001B80003131A06031DE128E228FB28A4300A12BB
:1001C8008A1113230A128A11063083120313AC0012
:1001D8001330AB00AD30AA00AA0BF028AB0BF02807
:1001E800AC0BF0280A128A11EA220A128A117F300F
:1001F800831203131A06031D022903292928013033
:100208000A128A1113230A128A1106308312031361
:10021800AC001330AB00AD30AA00AA0B1129AB0B10
:100228001129AC0B112924280A128A110E28013031
:100238008A000408840A820700340D344534733474
:100248007434613464346F34203445346C34693424
:100258006D3469346E34613464346F340D344E3423
:100268006F34203468346134793420346E3469341E
:100278006E34673475346E342034653473347434B2
:10028800613464346F3420346734753461347234C3
:100298006434613464346F340034533420342D347E
:1002A80020344734753461347234643461347234C0
:1002B8002034453473347434613464346F340D3409
:1002C8005334503441344334453420342D342034AD
:1002D800523465346734723465347334613472343B
:1002E80020346134203465347334743461346434B4
:1002F8006F340D3400340D3449346E34733474342F
:10030800723475346334633469346F346E346534ED
:10031800733420347034613472346134203463347B
:100328006F346E34743472346F346C342034643403
:1003380065342034653473347434613464346F3410
:100348000D340034443445344C3420342D342034B6
:1003580045346C346D3469346E346134723420340D
:10036800653473347434613464346F3420346734DE
:100378007534613472346434613464346F340034F5
:100388000D345234653467347234653473346134EF
:100398006E3464346F3420346134203465347334FB
:1003A8007434613464346F340D3400340D3445349E
:1003B80073347434613464346F342034473475349E
:1003C800613472346434613464346F3421340D34EC
:1003D80000340B1DF029F129F82906308100D230AC
:1003E8008316031381000B1183120C1CFC29FD29B1
:1003F800042A0C100F308800FF308E0082308F00E6
:100408000C1F072A082AA62A1F190B2A0C2A2F2A8A
:100418009F190F2A102A2F2A1E08A000A1012008C0
:10042800F0002108F100831603131E08831203133A
:10043800A200A3012208F2002308F3000A128A117D
:1004480038230A128A117108FD007008FC00831213
:1004580003131F15A52A1F1D322A332A572A9F194D
:10046800362A372A572A1E08A000A1012008F000C2
:100478002108F100831603131E0883120313A20038
:10048800A3012208F2002308F3000A128A11382374
:100498000A128A117108FB007008FA00831203130C
:1004A8001F119F15A52A1F195A2A5B2A7D2A9F1DED
:1004B8005E2A5F2A7D2A1E08A000A1012008F000FC
:1004C8002108F100831603131E0883120313A200E8
:1004D800A3012208F2002308F3000A128A11382324
:1004E8000A128A11710883120313B9007008B80040
:1004F8002B2A1F1D802A812AA52A9F1D842A852A26
:10050800A52A1E08A000A1012008F0002108F1007A
:10051800831603131E0883120313A200A3012208E3
:10052800F2002308F3000A128A1138230A128A11EA
:10053800710883120313B7007008B6001F119F11CA
:10054800A52A0C1325088A00240E8300FE0E7E0EB1
:1005580009000F3083160317880089010F308316AE
:100568000313850086018030870088018901981669
:10057800181283120313981783160313181583167A
:1005880003178711831603139A01193099008312F0
:1005980003131816831603139F1341308312031392
:1005A8009F001014DF308E00B1308F000C108B17B5
:1005B8008B160B17831603130C140C1783120313D3
:1005C8008501860187018801890108005F300A12C8
:1005D8008A1113230A128A11413083120313A900C6
:1005E800ED30A800A80BF62AA90BF62AFB2A313011
:1005F8000A128A1113230A128A1141308312031333
:10060800A900ED30A800A80B072BA90B072B0C2B72
:1006180086300A128A1113230A128A1108008312DB
:100628000313A7002B2B270884000A128A111B2109
:100638000A128A11990083160313981C242B252B60
:100648001F2B013083120313A6002608A7072708CB
:1006580084000A128A111B210A128A11003A031D0A
:10066800362B372B172B08007308F5007208F40097
:1006780006300310F50CF40CFF3E031D3D2B7108EA
:10068800F7007008F6000310F60DF70D0310F60DCD
:10069800F70D74087604F80075087704F9007908EE
:0806A800F1007808F0000800E1
:04400E00F43FFF3F3D
:00000001FF
