:020000040000FA
:060000000A128A110E280D
:10000800FE00030E83120313A4000A08A5000A12B7
:100018008A1166290A128A111128FA018312031318
:10002800AD01AE01AF01B001B101B201B301B4013C
:1000380083010A128A1120280A128A11CB230A1274
:100048008A110A128A111E240A128A1183120313B2
:100058009F140F3083120313AA00AA0B31283428E7
:100068008312031397122D183A283E28831203137C
:10007800171641288312031317122E08AB002D08F8
:10008800AA000310AB0CAA0C0310AB0CAA0C2A088C
:1000980095008C1E502851282A2873301A06031DF3
:1000A80056285728D12805163408AB003308AA006B
:1000B8000310AB0CAA0C0310AB0CAA0C0310AB0C6E
:1000C800AA0C2A08283EAC002C08A60000300A1208
:1000D8008A116C240A128A110D3083120313AB00A3
:1000E800FB30AA00AA0B7628AB0B762883120313E1
:1000F8003208AB003108AA000310AB0CAA0C03109D
:10010800AB0CAA0C0310AB0CAA0C2A08283EAC00B6
:100118002C08A60001300A128A116C240A128A11CE
:100128000D3083120313AB00FB30AA00AA0B9A28E8
:10013800AB0B9A28831203133008AB002F08AA00D0
:100148000310AB0CAA0C0310AB0CAA0C0310AB0CDD
:10015800AA0C2A08283EAC002C08A60002300A1275
:100168008A116C240A128A1197300A128A114724BC
:100178000A128A11063083120313AC001330AB0045
:10018800AD30AA00AA0BC628AB0BC628AC0BC628F4
:100198000A128A111E240A128A11203083120313AC
:1001A8001A06031DD828D9284429851600300A12B2
:1001B8008A11AC240A128A1183120313AA00AB0114
:1001C8000310AA0DAB0D0310AA0DAB0D0310AA0D59
:1001D800AB0D2A08C03EB3002B080318013EFE3EB3
:1001E800B40001300A128A11AC240A128A1183124F
:1001F8000313AA00AB010310AA0DAB0D0310AA0D3F
:10020800AB0D0310AA0DAB0D2A08C03EB1002B0898
:100218000318013EFE3EB20002300A128A11AC24D5
:100228000A128A1183120313AA00AB010310AA0D44
:10023800AB0D0310AA0DAB0D0310AA0DAB0D2A08C8
:10024800C03EAF002B080318013EFE3EB000B030A0
:100258000A128A1147240A128A11063083120313DC
:10026800AC001330AB00AD30AA00AA0B3929AB0B98
:100278003929AC0B39290A128A111E240A128A114B
:100288006630831203131A06031D4B294C292A28AA
:100298000512851278300A128A1147240A128A1127
:1002A800063083120313AC001330AB00AD30AA0044
:1002B800AA0B5C29AB0B5C29AC0B5C2925280A121C
:1002C8008A110E280B1D69296A29EB29083081003B
:1002D800831603130108F8390538810081117A085B
:1002E800031D772978299C298312031308143408DD
:1002F800A1003308A0000310A10CA00C0310A10C4E
:10030800A00C0310A10CA00C2008283EF000210826
:100318000318013E003EF1000A128A11C1240A1294
:100328008A118312031308100130A0002008FA076D
:100338007A03031DA029A129C4298312881432082D
:10034800A1003108A0000310A10CA00C0310A10CFF
:10035800A00C0310A10CA00C2008283EF0002108D6
:100368000318013E003EF1000A128A11C1240A1244
:100378008A118312031388100130A0002008FA079D
:1003880002307A06031DC929CA29EA2983120815E9
:100398003008A1002F08A0000310A10CA00C031026
:1003A800A10CA00C0310A10CA00C2008283EF00002
:1003B80021080318013E003EF1000A128A11C124E7
:1003C8000A128A11831203130811FA010B118312FE
:1003D8000C1FEF29F029922A851AF329F429912A6A
:1003E8001F19F729F8291B2A9F19FB29FC291B2A01
:1003F8001E08A000A1012008F0002108F1008316C2
:1004080003131E0883120313A200A3012208F2009B
:100418002308F3000A128A118C240A128A1171081F
:1004280083120313B4007008B3001F15912A1F1D0F
:100438001E2A1F2A432A9F19222A232A432A1E08D2
:10044800A000A1012008F0002108F1008316031381
:100458001E0883120313A200A3012208F200230836
:10046800F3000A128A118C240A128A117108831265
:100478000313B2007008B1001F119F15912A1F19AC
:10048800462A472A692A9F1D4A2A4B2A692A1E0892
:10049800A000A1012008F0002108F1008316031331
:1004A8001E0883120313A200A3012208F2002308E6
:1004B800F3000A128A118C240A128A117108831215
:1004C8000313B0007008AF00192A1F1D6C2A6D2A8B
:1004D800912A9F1D702A712A912A1E08A000A10145
:1004E8002008F0002108F100831603131E08831268
:1004F8000313A200A3012208F2002308F3000A1242
:100508008A118C240A128A11710883120313AE000F
:100518007008AD001F119F11912A0C1325088A003D
:0A052800240E8300FE0E7E0E090073
:1006000003308A000408840A8207003453342034FB
:100610002D34203447347534613472346434613499
:1006200072342034453473347434613464346F3438
:100630000A345334503441344334453420342D3457
:100640002034523465346734723465347334613421
:10065000723420346134203465347334743461343A
:1006600064346F340A3400340A3449346E347334D9
:100670007434723475346334633469346F346E3473
:10068000653473342034703461347234613420340E
:1006900063346F346E34743472346F346C34203499
:1006A00064346534203465347334743461346434B0
:1006B0006F340A340034463420342D3420344D3421
:1006C0006F34763469346D34693465346E3474341F
:1006D0006F3420346C3469346234723465342034BD
:1006E0006434653420346C346134203467346134CC
:1006F0007234723461340A3400340A340A344D34AA
:100700006F34763469346D34693465346E347434DE
:100710006F3420344C34693462347234653420349C
:1007200048346134623469346C346934743461340B
:1007300064346F340A3400340A344E34553445344A
:1007400056344F3420344534733474346134643453
:100750006F34203447347534613472346434613416
:1007600064346F3421340A3400340A34523465342A
:10077000673472346534733461346E3464346F3486
:100780002034613420346534733474346134643417
:100790006F340A3400340F30831603178800890140
:1007A0000F3083160313850086018030870088018F
:1007B00089019816181283120313981783160313CE
:1007C0001815831603178711831603139A0119301E
:1007D0009900831203131816831603139F134130D5
:1007E000831203139F00083081008316031301084E
:1007F000F83905388100811181120B110715F93084
:100800009200831203139715171595018C1003306E
:10081000920012158C1C0D2C0E2C0A2C8030831685
:10082000031387008B170B178B160C1783120313F8
:100830008501860187018801890108002F300A128D
:100840008A1147240A128A11413083120313A90026
:10085000ED30A800A80B2A2CA90B2A2C2F2C013034
:100860000A128A1147240A128A1141308312031393
:10087000A900ED30A800A80B3B2CA90B3B2C402C69
:1008800056300A128A1147240A128A11080083126C
:100890000313A7005F2C270884000A128A11002383
:1008A0000A128A11990083160313981C582C592C8C
:1008B000532C013083120313A6002608A70727082C
:1008C00084000A128A1100230A128A11003A031DB9
:1008D0006A2C6B2C4B2C080083120313A7002708EB
:1008E000831203178D008312031326088312031744
:1008F0008C00831603178C130C158B138B1B812C08
:10090000822C7D2C5530831603178D00AA308D0064
:100910008C148B170C1108007308F5007208F40092
:1009200006300310F50CF40CFF3E031D912C7108EA
:10093000F7007008F6000310F60DF70D0310F60D22
:10094000F70D74087604F80075087704F900790843
:10095000F1007808F000080083120313A7002708AD
:10096000831203178D00831603178C130C14831244
:1009700003170C0883120313A6002608A8002808F2
:100980000800C92C0130F0020030031CF103F10211
:10099000000070087104031DCE2CCF2CC22C08005F
:04400E00F43FFF3F3D
:00000001FF
