:020000040000FA
:060000000A128A110E280D
:10000800FE00030E83120313A4000A08A5000A12B7
:100018008A111F280A128A111128FA01FB01FC0112
:10002800FD0183120313AD01AE01AF01B0018301DD
:100038000A128A11FE290C1C2228232883280C1056
:10004800DF308E00B1308F0008147D08A1007C08D5
:10005800A0000310A10CA00C0310A10CA00C03100D
:10006800A10CA00C2008283EF00021080318013E2E
:10007800003EF1000A128A1122230A128A11831201
:100088000313081088147B08A1007A08A000031045
:10009800A10CA00C0310A10CA00C0310A10CA00C27
:1000A8002008283EF00021080318013E003EF10018
:1000B8000A128A1122230A128A1183120313881042
:1000C80008153008A1002F08A0000310A10CA00CEF
:1000D8000310A10CA00C0310A10CA00C2008283EB2
:1000E800F00021080318013E003EF1000A128A11AF
:1000F80022230A128A1183120313081125290C1FBF
:100108008628872825291F198A288B28AE289F1911
:100118008E288F28AE281E08A000A1012008F00014
:100128002108F100831603131E0883120313A2008B
:10013800A3012208F2002308F3000A128A110223FD
:100148000A128A117108FD007008FC00831203135B
:100158001F1524291F1DB128B228D6289F19B52894
:10016800B628D6281E08A000A1012008F000210802
:10017800F100831603131E0883120313A200A301C0
:100188002208F2002308F3000A128A1102230A1235
:100198008A117108FB007008FA00831203131F11FB
:1001A8009F1524291F19D928DA28FC289F1DDD2826
:1001B800DE28FC281E08A000A1012008F000210864
:1001C800F100831603131E0883120313A200A30170
:1001D8002208F2002308F3000A128A1102230A12E5
:1001E8008A11710883120313B0007008AF00AA289F
:1001F8001F1DFF28002924299F1D032904292429BC
:100208001E08A000A1012008F0002108F1008316B3
:1002180003131E0883120313A200A3012208F2008D
:100228002308F3000A128A1102230A128A1171089C
:1002380083120313AE007008AD001F119F1124290B
:100248000C1325088A00240E8300FE0E7E0E09007A
:1002580001308A000408840A820700340D344534CA
:1002680073347434613464346F34203445346C34FA
:1002780069346D3469346E34613464346F340D34E8
:100288004E346F34203468346134793420346E3419
:1002980069346E34673475346E342034653473349D
:1002A8007434613464346F342034673475346134A1
:1002B80072346434613464346F3400345334203419
:1002C8002D342034473475346134723464346134E5
:1002D80072342034453473347434613464346F3484
:1002E8000D345334503441344334453420342D34A0
:1002F800203452346534673472346534733461346D
:100308007234203461342034653473347434613485
:1003180064346F340D3400340D3449346E3473341E
:100328007434723475346334633469346F346E34BE
:100338006534733420347034613472346134203459
:1003480063346F346E34743472346F346C342034E4
:1003580064346534203465347334743461346434FB
:100368006F340D340034443445344C3420342D3447
:10037800203445346C346D3469346E3461347234ED
:100388002034653473347434613464346F34203405
:1003980067347534613472346434613464346F346E
:1003A80000340D3452346534673472346534733430
:1003B80061346E3464346F342034613420346534ED
:1003C80073347434613464346F340D3400340D3450
:1003D800453473347434613464346F3420344734AE
:1003E8007534613472346434613464346F34213464
:1003F8000D3400340A128A1178220A128A110A125C
:100408008A11B4220A128A11831203139F140F301F
:1004180083120313AA00AA0B0F2A122A83120313AA
:100428008C1E172A182A082A73301A06031D1D2A3B
:100438001E2A372ABA300A128A11DD220A128A11B4
:10044800063083120313AC001330AB00AD30AA00A2
:10045800AA0B2C2AAB0B2C2AAC0B2C2A0A128A11B9
:10046800B4220A128A112030831203131A06031DBC
:100478003E2A3F2A582AA4300A128A11DD220A127B
:100488008A11063083120313AC001330AB00AD3071
:10049800AA00AA0B4D2AAB0B4D2AAC0B4D2A0A1207
:1004A8008A11B4220A128A117F30831203131A06A2
:1004B800031D5F2A602A082A01300A128A11DD22E8
:1004C8000A128A11063083120313AC001330AB00F2
:1004D800AD30AA00AA0B6E2AAB0B6E2AAC0B6E2AA3
:1004E800032A0A128A110E280F3083160317880070
:1004F80089010F3083160313850086018030870039
:100508008801890198161812831203139817831605
:1005180003131815831603178711831603139A01FB
:1005280019309900831203131816831603139F13A7
:100538004130831203139F001014DF308E00B13056
:100548008F000C108B170B17831603130C140C1742
:100558008312031385018601870188018901080038
:100568005F300A128A11DD220A128A114130831281
:100578000313A900ED30A800A80BC02AA90BC02AB4
:10058800C52A31300A128A11DD220A128A11413035
:1005980083120313A900ED30A800A80BD12AA90BD8
:1005A800D12AD62A86300A128A11DD220A128A1125
:1005B800080083120313A700F52A270884000A12EB
:1005C8008A112C210A128A11990083160313981C88
:1005D800EE2AEF2AE92A013083120313A60026081F
:1005E800A707270884000A128A112C210A128A11E7
:1005F800003A031D002B012BE12A08007308F500BF
:100608007208F40006300310F50CF40CFF3E031DCD
:10061800072B7108F7007008F6000310F60DF70DA8
:100628000310F60DF70D74087604F80075087704C2
:10063800F9007908F1007808F00008002A2B013049
:10064800F0020030031CF103F1020000700871048D
:0A065800031D2F2B302B232B08006D
:04400E00F43FFF3F3D
:00000001FF
