:020000040000FA
:060000000A128A110C280F
:10000800FE00030EF1000A08F2000A128A119C2968
:100018000A128A110F2883120313B001B101B20129
:10002800B301B401B501B601B701B801B901BA010C
:10003800BB01BC01BD01BE0183010A128A11F62869
:10004800FA00643083120313A0000030A1003B08BB
:10005800AA00AB012A08A2002B08A3000A128A11E1
:100068008D200A128A11831203132008AC007A0823
:1000780084002C08831380000A30A0000030A100FF
:100088003E08AA00AB012A08F3002B08F4009C30B4
:10009800F500FF30F6000A128A11D2210A128A11DD
:1000A800831203133B087307A20074080318740A29
:1000B800A3000A128A118D200A128A1183120313CF
:1000C8002008AC00280884002C08831380009C308A
:1000D800AA002A08F3003E080A128A11F7210A1218
:1000E8008A1183120313AB00F630AC002C08F3001E
:1000F8003D080A128A11F7210A128A118312031382
:100108002B073B07AD00290884002D0883138000C6
:10011800080083120313A501A11F932894289B2884
:10012800A009A109A00A0319A10AA501A50AA31FEC
:100138009E289F28A828A209A309A20A0319A30A8E
:100148000130F9007908A506A601A70120082104B5
:100158000319AF28B028E728A401A40ABE28013053
:100168000310A00DA10DFF3E031DB4280130F900B6
:100178007908A407A11FC128C228B3280130031099
:10018800A60DA70DFF3E031DC32821082302031D4A
:10019800CF2820082202031CD228D328DA282008D6
:1001A800A2022108031CA303A30226140130031092
:1001B800A10CA00CFF3E031DDB280130A402031D87
:1001C800E628E728C22825080319EB28EC28F12897
:1001D800A609A709A60A0319A70A2708A10026083D
:1001E800A00008000A128A114A210A128A118312F1
:1001F80003139F143D30AE002E08A8003C30AF001A
:100208002F08A9003E300A128A1124200A128A11E6
:10021800023083120313AE00AE0B102900003229FE
:1002280009103D08303E84008313000888008914B3
:100238000911FB2889103C08303E8400831300080C
:10024800880009150910FB2809113E08303E840072
:1002580083130008880009148910FB2883120313EC
:100268003A08AE00AF012F08003A03193C29FB28D1
:100278002E08003A03191429013A03191E29033AD2
:1002880003192829FB280A128A110C28033083161F
:10029800031788008901033083160313850086013C
:1002A8008701880189019F134130831203139F003E
:1002B8008B170B118B160B170B1108308100831647
:1002C80003138112F830810501108114011583127E
:1002D80003138501860187018801013089003F30B9
:1002E800F3007308B0000630F3007308B1005B3008
:1002F800F3007308B2004F30F3007308B3006630A0
:10030800F3007308B4006D30F3007308B5007D3056
:10031800F3007308B6000730F3007308B7007F30A6
:10032800F3007308B8006730F3007308B9000800D9
:100338000B1D9F29A029B3290A128A110C220A121F
:100348008A110130F000700883120313BA070330D2
:100358003A06031DB029B129B229BA010B1183123B
:1003680003130C1FB829B929CB291F19BC29BD298A
:10037800C1291E0887001F15CA291F1DC429C529A0
:10038800CA291E08F0007008BB001F110C13720860
:100398008A00710E8300FE0E7E0E0900F701F80137
:1003A800731CD729D829DE297508F7070318F80A16
:1003B8007608F80701300310F50DF60DFF3E031D12
:1003C800DF2901300310F40CF30CFF3E031DE6296E
:1003D80073087404031DF129F229D4297808F4005C
:1003E8007708F3000800F600F501761CFC29FD29C2
:1003F800012A7308F4007408F5070310F30D0310BD
:10040800F60C7608031D092A0A2AF9297508080036
:100418000B11083083120313810083160313811212
:0C042800F8308105011081140115080056
:04400E00F43FFF3F3D
:00000001FF
