:020000040000FA
:060000000A128A110C280F
:10000800FE00030EF1000A08F2000A128A119C2869
:100018000A128A110F28F501F601F701F801830188
:100028000A128A1117280A128A1162200A128A11E2
:10003800831203139F142028212800007808F30056
:100048000310730C7D3EF4007408F7007608F30083
:100058000310730C7D3EF4007408F500831203133B
:100068009712771838283C288312031317163F284D
:100078008312031317127708F30002300310F30CEE
:10008800FF3E031D4228730895009D1275184D28E0
:100098005128831203131D165428831203131D12AB
:1000A8007508F30002300310F30CFF3E031D5728B8
:1000B80073089B001C280A128A110C280330831627
:1000C800031788008901033083160313850086010E
:1000D80087018801890150308F009F1341308312B6
:1000E80003139F000630831603138700F93092002C
:1000F8008312031397151715203095009D151D15AC
:1001080020309B008C100330920012158C1C8D2817
:100118008E288A288316031387018B170B170C1751
:10012800831203138501860187018801890108006C
:10013800831203130C1FA128A228B6281F19A5286B
:10014800A628AC281E08F0007008F8001F15B5286E
:100158001F1DAF28B028B5281E08F0007008F6004B
:100168001F110C1372088A00710E8300FE0E7E0E9A
:0201780009007C
:04400E00F43FFF3F3D
:00000001FF
