:020000040000FA
:060000000A128A110C280F
:10000800FE00030EF1000A08F2000A128A11A42861
:100018000A128A110F28F501F601F701F801830188
:100028000A128A1117280A128A116A200A128A11DA
:10003800831203139F1400007808F30003300310A1
:10004800F30CFF3E031D23287308203EF4007408B8
:10005800F7007608F30003300310F30CFF3E031D8E
:1000680030287308203EF4007408F5008312031347
:100078009712771840284428831203131716472825
:100088008312031317127708F30002300310F30CDE
:10009800FF3E031D4A28730895009D1275185528C0
:1000A8005928831203131D165C28831203131D128B
:1000B8007508F30002300310F30CFF3E031D5F28A0
:1000C80073089B001C280A128A110C280330831617
:1000D80003178800890103308316031385008601FE
:1000E80087018801890130308F009F1341308312C6
:1000F80003139F000630831603138700A430920071
:100108008312031397151715203095009D151D159B
:1001180020309B008C100330920012158C1C9528FF
:10012800962892288316031387018B170B170C1731
:10013800831203138501860187018801890108005C
:10014800831203130C1FA928AA28BE281F19AD283B
:10015800AE28B4281E08F0007008F8001F15BD2846
:100168001F1DB728B828BD281E08F0007008F60023
:100178001F110C1372088A00710E8300FE0E7E0E8A
:0201880009006C
:04400E00F43FFF3F3D
:00000001FF
