:020000005F2877
:10000800A00003138312030EA100031383120B181D
:100018003B280B1912288C183428462803138312FE
:100028000B110830810003138316D33081050313A5
:1000380083120918A41489182415091924140818F6
:10004800A214881822150819A21588192216081A48
:10005800A216881A2217081BA217881B221409281F
:100068008C10A41B3928B8030928B90309280313DD
:100078008312861DA315061E2316861EA3160B10B3
:10008800A317092803138312210E8308A00E200E3C
:10009800090082073F3406345B344F3466346D34CC
:1000A8007D3407347F34673477347C3439345E34B4
:1000B800793471340034B520D020031383120B1126
:1000C8000830810003138316D3308105031383128C
:1000D8000C1062308F00C6308E0031309000031350
:1000E80083128C100030910027309200F020031307
:1000F8008312FB20732281228F222518A2213D081A
:100108000319B1212519BF213E080319CE21251A4B
:10011800DA213F080319E921F521241A0B22A41A30
:100128002522241B3F22380803195922A41B8021A9
:10013800031383122418DF22A418E5222419EB22C2
:100148002218A722A218AE222219B522A219BC226F
:10015800221AC322A21ACA22221BD122A21BD822E7
:100168007B2803178316880189010313831600303F
:100178008500860087008800091089100911383029
:100188008600811338309500031383128501860198
:10019800870188018901080003138316FA30920049
:1001A800031383123230B800B900081409140A3056
:1001B800A900C1000A30AC00C2000A30AF00C30079
:1001C8000030A400C0000130BA000430BB00043085
:1001D800BC002514A41508000313831696158B1765
:1001E80016160B178B168B1596168C1408000030F4
:1001F8004002031910290130400203192A2902304C
:1002080040020319352903304002031940290430FC
:1002180040020319672908000610861006111030DD
:10022800A800A700A31B19210800A3112312A31AD1
:100238001F21A3130800C00A05304002031926290C
:10024800A31208000030C000A3120800061486108C
:1002580006114108A6009D22A31B4B212608C100B8
:1002680008000610861406114208A6009D22A31B4A
:100278004B212608C2000800061086100615430800
:10028800A6009D22A31B4B212608C3000800A31922
:100298005321231A5D21A31A1F21A3130800A60ABC
:1002A8002608320203195A21A31108000A30A600B1
:1002B8000800A60326083302031964212312080044
:1002C8001430A6000800061486140615A31B6D2119
:1002D8000800A3197521231A9821A31A1F21A31313
:1002E80008004108A9004208AC004308AF000030EC
:1002F800C000A417A3110800031383120030A8003C
:10030800A700AA00AB00AD00AE00B000B1000730F6
:10031800850039080319912908003230B900B8005E
:10032800A413A501251408002908C1002C08C2003F
:100338002F08C3000030C000231208000130BA00A3
:100348000430BB00BC002908BE00BD000330BD025C
:1003580029082C07BF002510080024123A19BE29C5
:10036800A518BC290330BD000230BA00A514080046
:100378002515A51008000130BB000430BA00BC00E8
:100388002908BF00BE000330BE022C082F07BD009D
:1003980025110800A412A519D7290330BE00023080
:1003A800BB00A51508002516A51108000130BC00E2
:1003B8000430BB00BA002F08BD00BF000330BF02E5
:1003C8002F082907BE00251208002413A51AF229B0
:1003D8000330BF000230BC00A51608002514A51282
:1003E80008003A18FC293B18012A3C18062A08007C
:1003F80003303D0203192416080003303E02031996
:10040800A416080003303F020319241708000C182B
:100418000E220800031383120C1062308F00C630BE
:100428008E0031309000A4191B2AA41D1F2A3A14EB
:100438007322A41108003A101030AA00AB00A415CA
:1004480008000C1828220800031383120C106230CD
:100458008F00C6308E0031309000A419352AA41DB3
:10046800392A3B148122A41108003B101030AD003A
:10047800AE00A41508000C184222080003138312CA
:100488000C1062308F00C6308E0031309000A419F5
:100498004F2AA41D532A3C148F22A41108003C1093
:1004A8001030B000B100A4150800BD03BE03BF039F
:1004B8003230B8000800B6000A30B6020318B50A90
:1004C8000318602A0A30B6073608B7000130B702A9
:1004D8000318B40A03186A2A0130B70708003A0853
:1004E800031D772A08000030B500B4003D085F22DC
:1004F8003508AA003408AB0008003B08031D852A0C
:1005080008000030B500B4003E085F223508AD0091
:100518003408AE0008003C08031D932A0800003088
:10052800B500B4003F085F223508B0003408B100B8
:1005380008000030B500B40026085F223508A8007E
:100548003408A70008008813081428084D208700DD
:10055800221008000810881427084D208700A210D0
:100568000800881008152A084D2087002211080065
:10057800081188152B084D208700A2110800881142
:1005880008162D084D208700221208000812881628
:100598002E084D208700A21208008812081730087C
:1005A8004D208700221308000813881731084D20B2
:1005B8008700A2130800091109143A0885002410BD
:1005C8000800091089143B088500A4100800891048
:0A05D80009153C08850024110800F5
:04400E00F43FFF3F3D
:00000001FF
