:020000005B287B
:10000800A00003138312030EA100031383120B181D
:1000180037280B1912288C18342842280313831206
:100028000B110830810003138316D43081050313A4
:1000380083120918A41489182415091924140818F6
:10004800A214881822150819A21588192216081A48
:10005800A216881A2217081BA217881B221409281F
:100068008C10B803092803138312861DA315061ED6
:100078002316861EA3160B10A31709280313831231
:10008800210E8308A00E200E090082073F34063493
:100098005B344F3466346D347D3407347F346734D1
:1000A80077347C3439345E34793471340034AF2099
:1000B800CA20031383120B1108308100031383161F
:1000C800D4308105031383120C1062308F00C630C0
:1000D8008E0031309000031383128C100030910091
:1000E80027309200E92003138312F420532261225F
:1000F8006F22251882213C080319912125199F2177
:100108003D080319AE21251ABA213E080319C92151
:10011800D521241AEB21A41A0522241B1F223808F2
:1001280003193922031383122418BF22A418C522E5
:100138002419CB2222188722A2188E22221995224E
:10014800A2199C22221AA322A21AAA22221BB12295
:10015800A21BB82277280317831688018901031385
:1001680083160030850086008700880009108910F2
:100178000911383086008113383095000313831233
:100188008501860187018801890108000313831608
:10019800FA309200031383123230B800081409149D
:1001A8000A30A900C0000A30AC00C1000A30AF0014
:1001B800C2000030A400BF000130B9000430BA000A
:1001C8000430BB002514A4150800031383169615E4
:1001D8008B1716160B178B168B1596168C14080092
:1001E80000303F020319092901303F02031923296E
:1001F80002303F0203192E2903303F02031939291F
:1002080004303F0203196029080006108610061101
:100218001030A800A700A31B12210800A311231265
:10022800A31A1821A3130800BF0A05303F020319B7
:100238001F29A31208000030BF00A31208000614EB
:10024800861006114008A6007D22A31B442126081B
:10025800C00008000610861406114108A6007D2279
:10026800A31B44212608C1000800061086100615A5
:100278004208A6007D22A31B44212608C2000800CC
:10028800A3194C21231A5621A31A1821A3130800D5
:10029800A60A2608320203195321A31108000A30BE
:1002A800A6000800A6032608330203195D212312BD
:1002B80008001430A6000800061486140615A31BAF
:1002C80066210800A3196E21231A7821A31A182180
:1002D800A31308004008A9004108AC004208AF0079
:1002E8000030BF00A31108002908C0002C08C10075
:1002F8002F08C2000030BF00231208000130B900E7
:100308000430BA00BB002908BD00BC000330BC02A1
:1003180029082C07BE0025100800241239199E2927
:10032800A5189C290330BC000230B900A5140800A8
:100338002515A51008000130BA000430B900BB002B
:100348002908BE00BD000330BD022C082F07BC00E1
:1003580025110800A412A519B7290330BD000230E1
:10036800BA00A51508002516A51108000130BB0024
:100378000430BA00B9002F08BC00BE000330BE022A
:100388002F082907BD00251208002413A51AD22911
:100398000330BE000230BB00A51608002514A512C4
:1003A80008003918DC293A18E1293B18E629080021
:1003B80003303C0203192416080003303D020319D8
:1003C800A416080003303E020319241708000C186D
:1003D800EE210800031383120C1062308F00C63020
:1003E8008E0031309000A419FB29A41DFF2939146F
:1003F8005322A411080039101030AA00AB00A4152C
:1004080008000C1808220800031383120C1062302D
:100418008F00C6308E0031309000A419152AA41D13
:10042800192A3A146122A41108003A101030AD00BC
:10043800AE00A41508000C1822220800031383122A
:100448000C1062308F00C6308E0031309000A41935
:100458002F2AA41D332A3B146F22A41108003B1035
:100468001030B000B100A4150800BC03BD03BE03E2
:100478003230B8000800B6000A30B6020318B50AD0
:100488000318402A0A30B6073608B7000130B70209
:100498000318B40A03184A2A0130B70708003908B4
:1004A800031D572A08000030B500B4003C083F225D
:1004B8003508AA003408AB0008003A08031D652A6D
:1004C80008000030B500B4003D083F223508AD00F3
:1004D8003408AE0008003B08031D732A08000030EA
:1004E800B500B4003E083F223508B0003408B1001A
:1004F80008000030B500B40026083F223508A800DF
:100508003408A70008008813081428084920870021
:100518002210080008108814270849208700A21014
:100528000800881008152A084920870022110800A9
:10053800081188152B0849208700A2110800881186
:1005480008162D084920870022120800081288166C
:100558002E0849208700A2120800881208173008C0
:1005680049208700221308000813881731084920FA
:100578008700A213080009110914390885002410FE
:100588000800091089143A088500A4100800891089
:0A05980009153B0885002411080036
:04400E00F43FFF3F3D
:00000001FF
