:020000005B287B
:10000800A00003138312030EA100031383120B181D
:1000180037280B1912288C18342842280313831206
:100028000B110830810003138316D33081050313A5
:1000380083120918A41489182415091924140818F6
:10004800A214881822150819A21588192216081A48
:10005800A216881A2217081BA217881B221409281F
:100068008C10B803092803138312861DA315061ED6
:100078002316861EA316A3170B1009280313831231
:10008800210E8308A00E200E090082073F34063493
:100098005B344F3466346D347D3407347F346734D1
:1000A80077347C3439345E34793471340034AF2099
:1000B800CA20031383120B1108308100031383161F
:1000C800D3308105031383120C1062308F00C630C1
:1000D8008E0031309000031383128C100030910091
:1000E80027309200E920031383123422422250223F
:1000F800F320251848213C080319572125196521A3
:100108003D0803197421251A80213E0803198F21FF
:100118009B21241AB121A41ACB21241BE5213808DC
:1001280003191A22031383122418A022A418A62242
:100138002419AC2222186822A2186F2222197622CA
:10014800A2197D22221A8422A21A8B22221B922211
:10015800A21B9922772803178316880189010313A4
:1001680083160030850086008700880009108910F2
:100178000911383086008113383095000313831233
:100188008501860187018801890108000313831608
:10019800FA309200031383123230B800081409149D
:1001A8000A30A900C0000A30AC00C1000A30AF0014
:1001B800C2000030A400BF000130B9000430BA000A
:1001C8000430BB002514A4150800031383168B17ED
:1001D8000B178B168B15383096008C1408000030DE
:1001E8003F020319422101303F020319FF21023067
:1001F8003F020319072203303F0203190F2204307C
:100208003F02031917220800A3112312A31A2A2157
:10021800A3130800A3191621231A2021A31A2A219F
:10022800A3130800A60A2608320203191D21A311E8
:1002380008000A30A6000800A6032608330203199E
:100248002721231208001430A6000800BF0AA312B1
:1002580008000030BF00A3112312A3120800A3193D
:100268003B21231A2D21A31A2D21A313080040088E
:10027800A9004108AC004208C20008001030A800DC
:10028800A700A31B082108000130B9000430BA00F8
:10029800BB002908BD00BC000330BC0229082C079C
:1002A800BE0025100800241239196429A5186229EE
:1002B8000330BC000230B900A51408002515A510AC
:1002C80008000130BA000430B900BB002908BE009C
:1002D800BD000330BD022C082F07BC002511080003
:1002E800A412A5197D290330BD000230BA00A51556
:1002F80008002516A51108000130BB000430BA001B
:10030800B9002F08BC00BE000330BE022F08290721
:10031800BD00251208002413A51A98290330BE0031
:100328000230BB00A51608002514A51208003918CC
:10033800A2293A18A7293B18AC29080003303C0227
:1003480003192416080003303D020319A4160800F7
:1003580003303E020319241708000C18B4210800C2
:10036800031383120C1062308F00C6308E003130B8
:100378009000A419C129A41DC52939143422A41137
:10038800080039101030AA00AB00A41508000C189A
:10039800CE210800031383120C1062308F00C63080
:1003A8008E0031309000A419DB29A41DDF293A14EE
:1003B8004222A41108003A101030AD00AE00A41576
:1003C80008000C18E8210800031383120C1062308F
:1003D8008F00C6308E0031309000A419F529A41D75
:1003E800F9293B145022A41108003B101030B0002A
:1003F800B100A41508004008A6005E22A31B0E2128
:100408002608C00008004108A6005E22A31B0E2192
:100418002608C10008004208A6005E22A31B0E2180
:100428002608C2000800A31B33210800BC03BD0333
:10043800BE033230B8000800B6000A30B60203180E
:10044800B50A0318212A0A30B6073608B700013062
:10045800B7020318B40A03182B2A0130B70708009B
:10046800B908031D382A08000030B500B4003C085C
:1004780020223508AA003408AB0008003A08031DFA
:10048800462A08000030B500B4003D08202235088F
:10049800AD003408AE0008003B08031D542A0800CC
:1004A8000030B500B4003E0820223508B0003408FA
:1004B800B10008000030B500B40026082022350835
:1004C800A8003408A7000800881308142808492041
:1004D8008700221008000810881427084920870080
:1004E800A2100800881008152A0849208700221140
:1004F8000800081188152B0849208700A211080058
:10050800881108162D0849208700221208000812B1
:1005180088162E0849208700A2120800881208179A
:10052800300849208700221308000813881731086B
:1005380049208700A2130800091109143908860008
:1005480024100800091089143A088600A41008002D
:0C055800891009153B08860024110800DA
:04400E00F43FFF3F3D
:00000001FF
