:020000005F2877
:10000800A00003138312030EA100031383120B181D
:100018003B280B1912288C183428462803138312FE
:100028000B110830810003138316D33081050313A5
:1000380083120918A41489182415091924140818F6
:10004800A214881822150819A21588192216081A48
:10005800A216881A2217081BA217881B221409281F
:100068008C10A41B3928B8030928B90309280313DD
:100078008312861DA315061E2316861EA3160B10B3
:10008800A317092803138312210E8308A00E200E3C
:10009800090082073F3406345B344F3466346D34CC
:1000A8007D3407347F34673477347C3439345E34B4
:1000B800793471340034B520D020031383120B1126
:1000C8000830810003138316D3308105031383128C
:1000D8000C1062308F00C6308E0031309000031350
:1000E80083128C100030910027309200F420031303
:1000F8008312FF207922872295222518A8213D08FE
:100108000319B7212519C5213E080319D421251A39
:10011800E0213F080319EF21FB21241A1122A41A18
:100128002B22241B4522380803195F22A41B842193
:10013800031383122418E522A418EB222419F122B0
:100148002218AD22A218B4222219BB22A219C22257
:10015800221AC922A21AD022221BD722A21BDE22CF
:100168007B2803178316880189010313831600303F
:100178008500860087008800091089100911383029
:100188008600811338309500031383128501860198
:10019800870188018901080003138316FA30920049
:1001A800031383123230B800B90008140914093057
:1001B800B3001530B2000A30A900C1000A30AC0003
:1001C800C2000A30AF00C3000030A400C0000130F4
:1001D800BA000430BB000430BC002514A415080084
:1001E8000313831696158B1716160B178B168B157C
:1001F80096168C14080000304002031914290130A7
:10020800400203192E29023040020319392903300C
:100218004002031944290430400203196B290800DD
:100228000610861006111030A800A700A31B1D2178
:100238000800A3112312A31A2321A3130800C00A3C
:100248000530400203192A29A31208000030C00013
:10025800A31208000614861006114108A600A3225E
:10026800A31B4F212608C10008000610861406119A
:100278004208A600A322A31B4F212608C20008009B
:100288000610861006154308A600A322A31B4F21BB
:100298002608C3000800A3195721231A6121A31AAD
:1002A8002321A3130800A60A2608320203195E2197
:1002B800A31108000A30A6000800A6032608330286
:1002C80003196821231208001430A6000800061438
:1002D80086140615A31B71210800A3197921231A76
:1002E8009E21A31A2321A31308004108A90042084C
:1002F800AC004308AF000030C000A417A3110800E9
:10030800031383120030A800A700AA00AB00AD00B9
:10031800AE00B000B10007308500390803199529EF
:1003280008003230B900B800A413A50125148F3095
:10033800A40508002908C1002C08C2002F08C30022
:100348000030C000231208000130BA000430BB009E
:10035800BC002908BE00BD000330BD0229082C07D7
:10036800BF002510080024123A19C429A518C2296B
:100378000330BD000230BA00A51408002515A510E9
:1003880008000130BB000430BA00BC002C08BF00D4
:10039800BE000330BE022C082F07BD00251108003F
:1003A800A412A519DD290330BE000230BB00A51533
:1003B80008002516A51108000130BC000430BB0058
:1003C800BA002F08BD00BF000330BF022F0829075D
:1003D800BE00251208002413A51AF8290330BF000F
:1003E8000230BC00A51608002514A51208003A180A
:1003F800022A3B18072A3C180C2A080003303D0241
:1004080003192416080003303E020319A416080035
:1004180003303F020319241708000C18142208009F
:10042800031383120C1062308F00C6308E003130F7
:100438009000A419212AA41D252A3A147922A4116E
:1004480008003A101030AA00AB00A41508000C18D8
:100458002E220800031383120C1062308F00C6305E
:100468008E0031309000A4193B2AA41D3F2A3B146A
:100478008722A41108003B101030AD00AE00A4156F
:1004880008000C1848220800031383120C1062306D
:100498008F00C6308E0031309000A419552AA41D53
:1004A800592A3C149522A41108003C101030B000C1
:1004B800B100A4150800BD03BE03BF033230B80065
:1004C8000800B6000A30B6020318B50A0318662AEF
:1004D8000A30B6073608B7000130B7020318B40A65
:1004E8000318702A0130B70708003A08031D7D2A4F
:1004F80008000030B500B4003D0865223508AA00A0
:100508003408AB0008003B08031D8B2A08000030A4
:10051800B500B4003E0865223508AD003408AE00C9
:1005280008003C08031D992A08000030B500B400F3
:100538003F0865223508B0003408B10008000030D3
:10054800B500B400260865223508A8003408A700BD
:1005580008008813081428084D2087002210080076
:100568000810881427084D208700A210080088105A
:1005780008152A084D20870022110800081188153F
:100588002B084D208700A2110800881108162D0895
:100598004D20870022120800081288162E084D20C8
:1005A8008700A21208008812081730084D2087001B
:1005B800221308000813881731084D208700A2135A
:1005C8000800091109143A088500241008000910C8
:1005D80089143B088500A4100800891009153C08F7
:0605E8008500241108004B
:04400E00F43FFF3F3D
:00000001FF
