:02000000612875
:10000800A00003138312030EA100031383120B181D
:100018003D280B1912288C183428482803138312FA
:100028000B110830810003138316D23081050313A6
:1000380083120818A214881822150819A2158819FD
:100048002216081AA216881A2217081BA217881B3C
:1000580024140918A4148918241509192214092824
:10006800031383128C100030910027309200B703DD
:10007800092803138312861DA315061E2316861E40
:10008800A316A3170B10092803138312210E830844
:10009800A00E200E090082073F3406345B344F342B
:1000A80066346D347D3407347F34673477347C3478
:1000B80039345E347934713400349620B120031316
:1000C80083120B110830810003138316D230810587
:1000D800031383128C100030910027309200C12046
:1000E80003138312CB20370803193B2155215F21C5
:1000F80069210313831222187D21A2188421221951
:100108008B21A2199221221A9921A21AA021221B1D
:10011800A721A21BAE212418B521A418BB2124199C
:10012800C1217428031783168801890103138316D4
:1001380000308500860087008800091089100911A1
:1001480038308600811338309500031383128501F7
:100158008601870188018901080003138316FA3094
:100168009200031383123230B70008140A30A80033
:100178000F30AB001430AE000800031383168B1742
:100188000B178B168B15383096008C14080000302E
:100198003B0203191A2101303B02031920210230C6
:1001A8003B020319282103303B0203193021043094
:1001B8003B02031938210800A3112312A31A0221B4
:1001C800A3130800A319EE20231AF820A31A02216A
:1001D800A3130800A50A250831020319F520A31165
:1001E80008000A30A5000800A503250832020319F3
:1001F800FF20231208001430A5000800BB0AA31230
:1002080008000030BB00A3112312A3120800A31991
:100218001321231A0521A31A0521A31308003C085A
:10022800A8003D08AB003E08BE0008001030A7003B
:10023800A600A31BE02008002808A5007321A31B23
:10024800E6202508BC0008002B08A5007321A31B85
:10025800E6202508BD0008002E08A5007321A31B71
:10026800E6202508BE000800A31B0B210800A803F0
:10027800AB03AE033230B7000800B5000A30B50250
:100288000318B40A031842290A30B5073508B6001E
:100298000130B6020318B30A03184C290130B60717
:1002A80008000030B400B300280841213408A90030
:1002B8003308AA0008000030B400B3002B0841211D
:1002C8003408AC003308AD0008000030B400B300B7
:1002D8002E0841213408AF003308B0000800003070
:1002E800B400B300250841213408A7003308A6004C
:1002F80008000911081427084F2087002210080059
:100308000810881426084F208700A21008008810BB
:10031800081529084F2087002211080008118815A0
:100328002A084F208700A2110800881108162C08F7
:100338004F20870022120800081288162D084F2027
:100348008700A2120800881208172F084F2087007C
:10035800221308000813881730084F208700A213BB
:1003680008008813091438088600241008000910AA
:10037800891439088600A4100800891009153A085C
:06038800860024110800AC
:04400E00F43FFF3F3D
:00000001FF
