:0200000049288D
:10000800F00003138312030EF100031383120B197C
:1000180012280C1822288C182D2830280313831234
:100028000B110830810003138316D23081050313A6
:1000380083120818F21488187214092803138312FB
:100048000C1085308F00EE308E0031309000F303B5
:1000580009288C10F403092803138312710E8308EE
:10006800F00E700E090082073F3406345B344F34BB
:1000780066346D347D3407347F34673477347C34A8
:1000880039345E3479347134003472208420031397
:1000980083120B110830810003138316D2308105B7
:1000A800031383120C1085308F00EE308E00313030
:1000B8009000031383128C10003091003C309200A2
:1000C800962003138312730803199E2074080319DA
:1000D800A2207218BB20F218C420672803178316C1
:1000E80088018901031383160030870088000910EE
:1000F800031383128501860187018801890108009D
:1001080003138316FA3092007D30F4000430F300B4
:10011800031383120030F500F600F700F20008140C
:1001280072150800031383168B170B178B160C1404
:100138008C140800F50A0430F30008007219A62888
:10014800721DAC280914B4207D30F4007211080027
:1001580009101030F600F7007D30F4007215080021
:1001680075080F39F700750E0F39F60008000313EC
:100178008312881008147608372087007210080048
:100188000313831208108814770837208700F210A9
:0201980008005D
:04400E00F43FFF3F3D
:00000001FF
